{
  "contractName": "MoonTokenSale",
  "abi": [
    {
      "inputs": [
        {
          "internalType": "contract MoonToken",
          "name": "tokenAddress",
          "type": "address"
        }
      ],
      "stateMutability": "nonpayable",
      "type": "constructor"
    },
    {
      "anonymous": false,
      "inputs": [
        {
          "indexed": false,
          "internalType": "address",
          "name": "_buyer",
          "type": "address"
        },
        {
          "indexed": false,
          "internalType": "uint256",
          "name": "_amount",
          "type": "uint256"
        }
      ],
      "name": "Sell",
      "type": "event"
    },
    {
      "inputs": [],
      "name": "admin",
      "outputs": [
        {
          "internalType": "address payable",
          "name": "",
          "type": "address"
        }
      ],
      "stateMutability": "view",
      "type": "function",
      "constant": true
    },
    {
      "inputs": [],
      "name": "moonToken",
      "outputs": [
        {
          "internalType": "contract MoonToken",
          "name": "",
          "type": "address"
        }
      ],
      "stateMutability": "view",
      "type": "function",
      "constant": true
    },
    {
      "inputs": [],
      "name": "tokenPriceUSD",
      "outputs": [
        {
          "internalType": "int256",
          "name": "",
          "type": "int256"
        }
      ],
      "stateMutability": "view",
      "type": "function",
      "constant": true
    },
    {
      "inputs": [],
      "name": "getETHPrice",
      "outputs": [
        {
          "internalType": "int256",
          "name": "",
          "type": "int256"
        }
      ],
      "stateMutability": "view",
      "type": "function",
      "constant": true
    },
    {
      "inputs": [],
      "name": "facuTokenPriceInETH",
      "outputs": [
        {
          "internalType": "int256",
          "name": "",
          "type": "int256"
        }
      ],
      "stateMutability": "view",
      "type": "function",
      "constant": true
    },
    {
      "inputs": [
        {
          "internalType": "uint256",
          "name": "_amount",
          "type": "uint256"
        }
      ],
      "name": "buyToken",
      "outputs": [],
      "stateMutability": "payable",
      "type": "function",
      "payable": true
    }
  ],
  "bytecode": "0x6080604052600180546001600160a01b03191673e1a0e1dbdc7498eacdaecdcaf06ea423ae68721e17905534801561003657600080fd5b506040516105c03803806105c0833981016040819052610055916100ad565b600480546001600160a01b031990811673d4a33860578de61dbabdc8bfdb98fd742fa7028e179091556032600355600280546001600160a01b03939093169282169290921790915560008054909116331790556100dd565b6000602082840312156100bf57600080fd5b81516001600160a01b03811681146100d657600080fd5b9392505050565b6104d4806100ec6000396000f3fe6080604052600436106100555760003560e01c80632d296bf11461005a5780633468145a1461006f578063407fcc31146100ac578063a607a8d9146100d0578063e1145b9d146100e5578063f851a440146100fa575b600080fd5b61006d61006836600461034c565b61011a565b005b34801561007b57600080fd5b5060025461008f906001600160a01b031681565b6040516001600160a01b0390911681526020015b60405180910390f35b3480156100b857600080fd5b506100c260035481565b6040519081526020016100a3565b3480156100dc57600080fd5b506100c26102a8565b3480156100f157600080fd5b506100c2610331565b34801561010657600080fd5b5060005461008f906001600160a01b031681565b6000610124610331565b9050610130828261037b565b34121561013c57600080fd5b6002546040516370a0823160e01b815230600482015283916001600160a01b0316906370a0823190602401602060405180830381865afa158015610184573d6000803e3d6000fd5b505050506040513d601f19601f820116820180604052508101906101a891906103b1565b10156101b357600080fd5b60025460405163a9059cbb60e01b8152336004820152602481018490526001600160a01b039091169063a9059cbb906044016020604051808303816000875af1158015610204573d6000803e3d6000fd5b505050506040513d601f19601f8201168201806040525081019061022891906103ca565b61023157600080fd5b6001546040516001600160a01b03909116903480156108fc02916000818181858888f1935050505015801561026a573d6000803e3d6000fd5b5060408051338152602081018490527f5e5e995ce3133561afceaa51a9a154d5db228cd7525d34df5185582c18d3df09910160405180910390a15050565b6004805460408051633fabe5a360e21b8152905160009384936001600160a01b03169263feaf968c928183019260a0928290030181865afa1580156102f1573d6000803e3d6000fd5b505050506040513d601f19601f820116820180604052508101906103159190610412565b5050509150506305f5e1008161032b9190610462565b91505090565b60008061033c6102a8565b90508060035461032b9190610462565b60006020828403121561035e57600080fd5b5035919050565b634e487b7160e01b600052601160045260246000fd5b80820260008212600160ff1b8414161561039757610397610365565b81810583148215176103ab576103ab610365565b92915050565b6000602082840312156103c357600080fd5b5051919050565b6000602082840312156103dc57600080fd5b815180151581146103ec57600080fd5b9392505050565b805169ffffffffffffffffffff8116811461040d57600080fd5b919050565b600080600080600060a0868803121561042a57600080fd5b610433866103f3565b9450602086015193506040860151925060608601519150610456608087016103f3565b90509295509295909350565b60008261047f57634e487b7160e01b600052601260045260246000fd5b600160ff1b82146000198414161561049957610499610365565b50059056fea264697066735822122007536702b219d0c165d529984217b56e128ce9112e0cf7263b233b8ce72d817464736f6c63430008110033",
  "immutableReferences": {},
  "source": "// SPDX-License-Identifier: MIT\n\npragma solidity 0.8.17;\n\nimport './MoonToken.sol';\nimport \"@chainlink/contracts/src/v0.8/interfaces/AggregatorV3Interface.sol\";\n\ncontract MoonTokenSale {\n    address payable public admin;\n    address payable private ethFunds = payable(0xE1a0E1DbDC7498eacdAEcDcAF06eA423ae68721E);\n    MoonToken public moonToken;\n    int public tokenPriceUSD;\n    AggregatorV3Interface internal priceFeed;\n    event Sell(address _buyer, uint256 _amount);\n\n    struct Transaction {\n        address buyer;\n        uint256 amount;\n    }\n    constructor(MoonToken tokenAddress) {\n        priceFeed = AggregatorV3Interface(0xD4a33860578De61DBAbDc8BFdb98FD742fA7028e);\n        tokenPriceUSD = 50;\n        moonToken = tokenAddress;\n        admin = payable(msg.sender);\n    }\n\n    function getETHPrice() public view returns(int) {\n        (, int price, , , ) = priceFeed.latestRoundData();\n        return (price / 10**8);\n    }\n\n    function facuTokenPriceInETH() public view returns(int) {\n        int ethPrice = getETHPrice();\n        return tokenPriceUSD / ethPrice;\n    }\n\n    function buyToken(uint256 _amount) public payable {\n        int facuTokenPriceETH = facuTokenPriceInETH();\n        require(int(msg.value) >= facuTokenPriceETH * int(_amount));\n        require(moonToken.balanceOf(address(this)) >= _amount);\n        require(moonToken.transfer(msg.sender, _amount));\n        ethFunds.transfer(msg.value);\n        emit Sell(msg.sender, _amount);\n    }\n\n    // function endSale() public {\n    //     require(msg.sender == admin);\n    //     // Return the tokens that were left inside of the sale contract\n    //     uint256 amount = moonToken.balanceOf(address(this));\n    //     require(moonToken.transfer(admin, amount));\n    //     selfdestruct(payable(admin));\n    // }\n\n}",
  "sourcePath": "/home/yuvedha/Projects/Blockchain/MoonToken/Moon-CryptoToken/contracts/MoonTokenSale.sol",
  "compiler": {
    "name": "solc",
    "version": "0.8.17+commit.8df45f5f.Emscripten.clang"
  },
  "schemaVersion": "3.4.11",
  "updatedAt": "2023-01-19T12:49:04.930Z",
  "networkType": "ethereum",
  "devdoc": {
    "kind": "dev",
    "methods": {},
    "version": 1
  },
  "userdoc": {
    "kind": "user",
    "methods": {},
    "version": 1
  }
}